:0B1AA800EF1FAC0670011E4C70F62210
:10196400E47820F2D2B77F04FE121AA8C2B77F64CB
:0E1974007E00121AA8D2B77F287E00021AA8A1
:10198200E4FB7D08C2B7EBC313FBD2B730B7034405
:0D19920080FB7F0A7E00121AA8DDE9AF037A
:01199F002225
:0219DC00AD0755
:1019DE007B08C2B7ED1392B77F0A7E00121AA8D207
:0719EE00B7EDC313FDDBEBB5
:0119F50022CF
:10112E00E4781AF208F21219647FCC1219DC007FEF
:10113E007F1211EC007F441211EC7FBE1219DC12EB
:10114E001982781AE4F208EFF2121982EFFE18E211
:10115E004EFE08E2FF18EEF208EFF2EE54F86012BF
:10116E0018E2FE08E2F4FFEEF4FEEF2401F2E43E94
:10117E0018F27C00781BE2540FFDE41202A2E4FB8D
:10118E00FA7980783D12011E781C1206FA781CE25C
:10119E00FB08E2F908E2FA08E2CBF8C000C001C091
:1011AE0002C003781AE25407FE08E254F0FFEEC4C0
:1011BE00F854F0C868FCEFC4540F48FDE41202A2C4
:1011CE00D003D002D001D00012002D781C1206FAE6
:0D11DE00781CE2FC08E2FD08E2FE08E2FFDA
:0D11EB00221219DC1219647FCC1219DC22CB
:10183800E2FB08E2FA08E2F908E2FE08E2F5828E25
:1018480083120676FF22EBF208EAF208E9F2E408CE
:0E185800F208F222E22401F218E23400F22239
:10180700C2A5C2A78F807F057E0012181AD2A77FB4
:03181700057E004B
:10181A00D3EF9400EE940040147D727C00ED1D70AD
:0D182A00011CED4C70F7EF1F70E61E80E30F
:01183700228E
:08000300C2A6121807C2A722D1
:081AB300D2A6121807C2A722F7
:1018E000C2A77F381200037F0C1200037F0612008C
:1018F000037F011200037F801200037F057E000238
:02190000181AB3
:101A5200EF70047F808006EFB401027FC0EF2DFF9C
:031A62000200037C
:021A0E00783925
:101A100012184E7839121838600A121AB3783D122B
:041A2000185C80EFDF
:011A2400229F
:021A2500780F38
:101A270012184E780F121838600A121AB378131268
:041A3700185C80EFC8
:011A3B002288
:1011F80048756D616E20626F64790064657465631B
:101208007465640073656E64696E672E2E003137ED
:1012180036323030343230313700416C65727420E8
:1012280073656E740054656D703A00434F323A002E
:10123800252E3266002564003C002070706D200069
:101248006572726F72202020002000436865636B0E
:10125800696E672E2E005761726E696E673A206854
:1012680069676800616C636F686F6C20636F6E7488
:10127800656E7400506C6561736520646F6E2774C9
:101288002000647269766520746972656400487527
:101298006D616E20626F647920646574656374653E
:1012A8006420696E20746865206361720000000024
:0312B80000000033
:0C1A3C0081000181080081070081090081
:10190200D2A4C2A47F967E001219A0D2A422C378C8
:1019120006E294E818E29403227DFE7BFF7E000239
:02192200063786
:1019A000D3EF9400EE940040147D727C00ED1D7026
:0D19B000011CED4C70F7EF1F70E61E80E388
:0119BD002207
:101A7800758901758C4CE4F58AD2A9D28CD2AFC293
:021A88009622A4
:10137400781A7C007A1279967F1F12191BC2AFD299
:10138400A47807E26401705CF21218E07F83120013
:10139400037BFF7A1179F8121A0E7FC41200037BC3
:1013A400FF7A127903121A0E7FDC7E051219A0123D
:1013B40014157A12790C121A0ED2AFC28C1219F6C5
:1013C400783C74FEF2087400F208741AF27BFF7A17
:1013D400127916120F7DD28CC2AF1214157A1279BB
:1013E40022121A0ED2AF7809E264017023F21218A5
:1013F400E0E4FDFF121A527BFF7A12792D121A0EC5
:101404007D017F01121A527BFF7A127933121A0E70
:0C141400221218E07FC41200037BFF22AC
:100CE10078147C007A1279B57F0612191B121AC387
:100CF100C2AF12112E78011206FA781D74FFF208A4
:100D01007412F2087438F27801E2FC08E2FD08E29C
:100D1100FE08E2FF78201206FA120E6D120E3A7FDB
:100D210086120E49121A0E7D0CE4FF121A527FDF51
:100D3100121AB37D0DE4FF121A527F43121AB31235
:100D41000E3A7D087F20121924121674E4FFFEEC7E
:100D510078101206D47805EEF208EFF2781D74FFD0
:100D6100F2087412F208743DF27805E2FF08E278A5
:100D710020CFF208EFF2120E6DD2AFE4FFFE7DF04C
:100D81007C417801E2FB08E2F908E2FA08E2CBF8DB
:100D9100120224400D7800E2B40107C2A47F8F1231
:100DA1000E53121910400D7800E2B40107C2A47F5E
:100DB100CF120E537F2C7E011219A0121374C2AFF1
:100DC100C37806E2949018E294017E0040047F010A
:100DD10080027F00C3EF94E8EE6480948350047F27
:100DE100C9801A1219107E0040047F0180027F0021
:100DF100C3EF9410EE648094A750157FCA120003CC
:100E01007BFF7A127942121A0E7FC6120E49800BAD
:100E11007FC61200037BFF7A127948121A0ED2AFF5
:100E21007FC87E001219A07F8F120E607FCF120E35
:090E310060D2A4121374020CF14A
:100E3A00D2AF7F647E001219A0121374C2AF2212BD
:100E4A0000037BFE7A007914221200037BFF7A12D8
:100E5A007940121A0E221200037BFF7A127951127C
:0D0E6A001A0E227BFE7A0079141208CF22A6
:03000B00020E776B
:100E7700C0E0C0F0C083C082C0D075D000C000C041
:100E870001C002C003C004C005C006C007758C4C72
:100E9700758A0020B4157F0A7E001219A020B40BB2
:100EA70030B4FD1219027800E2F4F220B5457F0A4A
:100EB7007E001219A020B53B30B5FD121902780942
:100EC7007401F218E4F21218E07FC41200037BFFEA
:100ED7007A127953121A2520B20778077401F28023
:100EE700127F407E011219A07808E204F2E2C3944F
:100EF7001940D32097297FB87E0B1219A020971F7E
:100F070078097401F2120F657A12795E120F727AFC
:100F170012796C121A257F407E061219A0D2A430CE
:100F2700962178097401F2C296120F657A12797CBC
:100F3700120F727A12798A121A257FB87E0B12194C
:100F4700A0D2A4D007D006D005D004D003D002D0B9
:100F570001D000D0D0D082D083D0F0D0E0321218A8
:100F6700E0C2A47F811200037BFF22121A257FC1F2
:060F77001200037BFF22C3
:10186600121A78121AC31218E0E4FDFF121A527BFC
:10187600FF7A12792D121A0E7D017F01121A527B00
:0D188600FF7A127933121A0E120CE180FE67
:10175A00781A1206FA781AE2FC08E2FD08E2FE0894
:10176A00E2FF78081206E7781A1206FA781AE2FBFC
:10177A0008E2F908E2FA08E2CBF822EB2FFFEE3A88
:10178A00FEED39FDEC38FC22E4FF1216C8E4FCFD3C
:02179A00FE222D
:1019BE00D3EF9400EE940040147D727C00ED1D7008
:0D19CE00011CED4C70F7EF1F70E61E80E36A
:0119DB0022E9
:071A9A00121AA1D2A07F3255
:071AA100AE071FEE70FA22F0
:101A6500D2A1121A9DC2A17F32121AA1C2A07F3241
:031A7500021AA1B1
:101A8A00C2A1C2A07F32121A9AD2A17F32021AA12F
:02161B00AD0719
:10161D00C2A07F0A121AA1E4FCED30E704D2A1802A
:10162D0002C2A17F05121AA1D2A07F05121AA1C272
:10163D00A07F05121AA1ED25E0FD0CECB408DA7FB0
:10164D0001121AA1D2A17F28121AA1D2A07F2812AD
:10165D001AA17F2830A108121AA1C2A07F0122125F
:06166D001AA1C2A07F00DB
:011673002254
:0216C800AD076C
:1016CA00E4FBC2A07F28121AA1D2A1E4FCD2A07F17
:1016DA0014121AA1EB25E0FB30A1054401FB80049A
:1016EA00EB54FEFB7F0A121AA1C2A07F3C121AA178
:1016FA000CECB408D8ED24FF92A17F1E121A9AC2EC
:08170A00A07F96121AA1AF03A3
:0117120022B4
:071AC3007D037F20021924BE
:10192400AB05AA07121A657FB012161BAF02121676
:101934001BAF0312161B121A8A7F647E000219BEA3
:10167400121A657FB112161B12179212175AC00361
:10168400121792D003121785781A1206FAE4FF1281
:1016940016C812175FC003121792D00312178512CF
:1016A400175AC0037F01121794D003121785781AB2
:1016B4001206FA121A8A781AE2FC08E2FD08E2FE1F
:0316C40008E2FF3A
:0116C7002200
:031A4800810A0010
:1019F600759850D29CE4F587758921758DFD758B98
:081A0600FDD28ED2AFD2AC225A
:081ABB008F993099FDC29922B8
:1017D3007851EBF208EAF208E9F27851E2FB08E209
:1017E300FA08E2F912065D601A7851E2FB0808E292
:1017F300F92401F218E2FA3400F212065DFF121A1C
:04180300BB80D722AD
:10000E007E007F647D007B017A00795D120847E4F3
:04001E00780AF22248
:0300230002179C25
:10179C00C0E0C083C082C0D075D008C2AC30981CE9
:1017AC00C298780AE2245DF582E43400F583E59969
:1017BC00F0E204F2E2C394644002E4F2D2ACD0D082
:0717CC00D082D083D0E0328F
:10153F0041540D0A004F4B0D0A0041542B435049A3
:10154F004E3F0D0A0052454144590041542B434D23
:10155F0047463D310D0A0041542B43534D503D3109
:10156F00372C3136372C302C380D0A0041542B4391
:10157F005343533D2247534D220D0A0041542B43F1
:10158F004D47533D2200220D0A003E00000000008F
:10159F00000000000000000000000000000000003C
:061A4B00840B0000000006
:10171300784874FFF2087415F2087444F20822C979
:10172300F208EAF208E9F2227E007D007B017A00EA
:1017330079C122E2F908E2FA08E222784F740AF248
:101743007BFF22E2FB08E2FA08E2F922E2FC08E26C
:07175300FD08E2FE08E2229E
:100F7D007839EB12172312171312070600000BB85E
:100F8D00784F740AF27A15793F12103860031218EF
:100F9D00BA121042784874FFF2087415F2087454AE
:100FAD00F208120706000003E8784F740AF27A156A
:100FBD00794912103860031218BA12104212171321
:100FCD00120706000003E812173E7A15795A12101F
:100FDD004A60031218BA12105212171312070600A4
:100FED00000BB812173E7A15796612104A6003127B
:100FFD0018BA121052121713120706000003E81246
:10100D00173E7A15797B121420EF64014E6003129E
:10101D0018BA7F0A7E00121944783C1217367842AE
:10102D00121722783912174602105A7BFF1214201C
:10103D00EF64014E227F0A7E001219442212142001
:0D104D00EF64014E227F0A7E00121944223A
:06105A00783FEB121723A2
:1010600078C17C007D017BFF7A15799B7E007F141F
:101070001206377F1412172B12084778C17C007DA7
:10108000017BFF7A15798B12082A783F1217367880
:101090004812172212172F1215AF784874FFF20862
:1010A0007415F2087495F212172F1215AF78487460
:1010B000FFF2087415F2087499F20812070600008E
:1010C0000BB8784F740AF212172F12112660031210
:1010D00018BA7842121736784812172208120706F3
:1010E00000000BB8784F740AF278421217461211BA
:1010F0002660031218BA7F2812172B120847900097
:10110000C1741AF0E4A3F0121713120706000027A7
:1011100010784F7405F212172F121420EF64014E4D
:0511200060031218BA83
:0911250022121420EF64014E2295
:1018BA001217131207060000006412173E7A1579F0
:1018CA003F121420EF64014E7003121ACA7FC87EB9
:0618DA000012194480DA3F
:031ACA0002000017
:061420007845EB121723D2
:1014260012000EE47850F2784FE2FF08E2C39F50B4
:101436007578451217461217D3780B120706000067
:101446000000784B12174FFF780BE2FB0812173695
:10145600CBF8C31206C3503D7F647E001219447850
:101466000B12174F2464FFE43EFEE43DFDE43CFC12
:10147600780B1206FA784812173678541217227B20
:10148600017A00795D1212BBE94A4B60B512000E73
:101496007E007F0122780B120706000000007850BC
:0C14A600E204F202142D12000EE4FEFF1E
:0114B2002217
:10194400E4FDFCC3ED9FEC9E5015E4FBFA0BBB00D9
:0F195400010AEB64724A70F50DBD00010C80E4CE
:011963002261
:10002600020310E86480F8E933E83360110460F0F5
:10003600ED33EC337009E8FCE9FDEAFEEBFF220440
:1000460060DED3EB9FEA9EE99DE8C2E78CF0C2F73B
:1000560095F0400CE8CCF8E9CDF9EACEFAEBCFFB07
:100066001202DB85D0F05804700320D5B3E8047083
:10007600075002B2D502031A92D5EC0460F7E4CC1D
:10008600C0E0C398F8603B94186008400DD0E0FBD0
:100096000202F2E4FBFAC9FC8028E830E406E4C96F
:1000A600FBE4CAFCE830E305E4C9CACBFCE8540724
:1000B6006010F8C3E913F9EA13FAEB13FBEC13FC2F
:1000C600D8F130F52FC3E49CFCEF9BFFEE9AFEEDD2
:1000D60099FDD0E0FBEF4E4D4C701222DB0302037C
:1000E60017EC2CFCEF33FFEE33FEED33FDED30E77E
:1000F600EB0202F2EF2BFFEE3AFEED39FDD0E0FB0C
:1001060050130BBB000302031AED13FDEE13FEEFB3
:0801160013FFEC13FC0202F2DE
:10011E00EC4D6011E8497017ED33EC3304600DE4DB
:10012E00FCFFFEFD22E933E8330470F802031012DF
:10013E0002DB58046009E4CC2481500628500902E1
:10014E00031A284003020317C0E0EB4A7044B9803B
:10015E0006D0E0FB020306EF4E701CBD8008EBFFDD
:10016E00EAFEE9FD80EBE98DF0A4FEE5F002020760
:10017E00E9CDF9EAFEEBFFEF89F0A4FCE5F0CE89BC
:10018E00F0A42EFFE435F0CD89F0A42DFEE435F079
:10019E008067EF4E7005BD80D780C3EF8BF0A4ACA7
:1001AE00F0EE8BF0A42CFCE435F0F8EF8AF0A42CE2
:1001BE00E5F038FCE433CB8DF0A42CFCE5F03BF8F5
:1001CE00EE8AF0A42CFCE5F038F8E433CF89F0A4E5
:1001DE002CFCE5F038CF3400CE89F0A42FFFE5F0EB
:1001EE003EFEE433C98DF0A42EFEE5F039CD8AF043
:1001FE00A42FFFE5F03EFEE43DFD33D0E0FB5007BB
:10020E000BBB000F02031AEC2CFCEF33FFEE33FE98
:06021E00ED33FD0202F2C7
:1002240074F8CC6480CCC86480C8F58204604FC381
:10023400EB9FF5F0EA9E42F0E99D42F0E89C45F020
:10024400603C501DE5825FFFE582D313CB5BCBF4AA
:100254002B5582FB50280ABA002409B900200880D3
:100264001DE5825BFBE582D313CF5FCFF4C3132F6D
:100274005582FF50090EBE00050DBD00010CC3EBF5
:100284009FF5F0EA9E42F0E99D42F0E89C45F0605B
:0902940007CC4820E701B3EC227D
:10029D0075F020800E75F010800575F0087D007EDC
:1002AD00007F003392D530D5031206B5EC334010E4
:1002BD00EF33FFEE33FEED33FDEC33FCD5F0ED22E5
:0E02CD00E5F0247EA2D513CC92E7CDCEFF2221
:10087300E510241DF8E2051022781A300702781DCE
:10088300E475F00112071F02065D2000EB7F2ED2F4
:10089300008018EF540F2490D43440D4FF30040B5D
:1008A300EF24BFB41A0050032461FFE51160021561
:1008B300110514E5147002051330070D781AE47559
:1008C300F00112071FEF0206A30218937403D20765
:1008D3008003E4C207F510781A12072FE4F511F527
:1008E30013F514E51160077F201208AE80F5751229
:1008F300FFC201C200C202C203C205C206C208127D
:10090300087CFF700D3007057F001208BFAF14AEDF
:100913001322B4255FC2D5C20412087CFF24D0B4CD
:100923000A00501A75F00A781130D50508B6FF0190
:1009330006C6A426F620D5047002D20380D924CF9C
:10094300B41A00EF5004C2E5D204020BABD201800B
:10095300C6D20080C0D20280BCD2D580BAD2058074
:10096300B47F201208AE2002077401B5110040F1D4
:10097300120873FF1208AE0208E6D208D206809569
:10098300120873FB120873FA120873F94A4B7006C4
:1009930079A27A0C7BFF20022EE511602A7E008E5D
:1009A3008275830012067660060EEE651270F0C241
:1009B300D5EBC0E0EAC0E0E9C0E0EE120C0BD0E0FA
:1009C300F9D0E0FAD0E0FB12065DFF60AAEBC0E0CD
:1009D300EAC0E0E9C0E01208AED0E02401F9D0E0BB
:1009E3003400FAD0E0FBE5120460DCD512D980872D
:1009F300D20280A2120BEE60F7E51270010412031B
:100A030025A912600DE512600914F512120C95EF79
:100A130060F3EA30E702F404C3995077EAF425124D
:100A23000430E701E404F512800D120BEE60C1EA15
:100A330005122512120325EA7830F230E701E42586
:100A43001204D5120420050114120C0BE4C0E012A9
:100A53000C957830E2601320E70714F212089680B1
:100A63002204F2D0E014C0E07F00120896E5126081
:100A73000712088D1512800B30050312088DD0E084
:100A83000208E6D0E00480C5120BEE60A0E5120474
:100A93001203257830EAF2E51220050260010424EE
:0C0AA30004120C0B74FF04C0E0120C9550
:100AAF00120896E512200502600312088DD0E0B5FA
:100ABF0012E87F451208A07830E27F2B30E7047FE1
:100ACF002DF404C0E01208AED0E075F00A84C0F037
:100ADF00120897D0E01208970208E6791080027981
:100AEF0008C206C2088008D2D5790A8004790AC2E2
:100AFF00D5E512047002F512E4FAFDFEFF12087339
:100B0F00FC7B08200113120873FD7B1030000A12C2
:100B1F000873FE120873FF7B20EC3382D592D550F9
:100B2F0013C3E43000069FFFE49EFEE42001039D03
:100B3F00FDE49CFCE4CBF8C201EC700CCFCECDCC25
:100B4F00E824F8F870F38017C3EF33FFEE33FEEDB0
:100B5F0033FDEC33FCEB33FB994002FB0FD8E9EB91
:100B6F00300105F8D0E0C448B201C0E00AEC4D4EA8
:100B7F004F78207B0070C2EAB5120040BCC0E01273
:100B8F000C0DD0F0D0E0200104C4C0E0C4B201C00D
:100B9F00F0120897D0F0D5F0EB0208E612073809EB
:100BAF0083530AEA5809544C0950420AEE4F0AF689
:100BBF00440AF6490969430AFC550A2D460A8B4532
:100BCF0009F7470CC25009582D095C2E097F2B09D4
:100BDF006023097D200CAB2A09184800000977E52E
:100BEF0012B4FF03751206120873FC120873FD127C
:100BFF000873FE120873FF7829020354790AA2D5ED
:100C0F00200314300509B910020404B9080104A225
:100C1F00D52006025001042002689202B51100503F
:100C2F0034C0E07F203003197F30A20272067205B4
:100C3F00500F120C64C202C206C205C2087F308078
:100C4F000F300503E9C0E01208AE300503D0E0F91C
:100C5F00D0E0B511CC3005177F30B9100C1208AEAB
:100C6F007F583004077F788003B908031208AE302D
:100C7F0002057F2D0208AE7F202008F87F2B20066B
:100C8F00F322920280CF7F00B4070050052429F889
:100C9F00E2FF22286E756C6C2900D20112087330A6
:100CAF0001F8C201781130D50108F60209182D504C
:100CBF004349581208732403B405004001E4900C13
:100CCF00BD9312089F743A12089FD2037511040244
:020CDF000AEA1F
:1002DB00E9D2E7C933E833F892D5EDD2E7CD33EC69
:0702EB0033FC5002B2D522E2
:1002F200EC30E7100FBF000C0EBE00080DBD00046D
:100302000BEB6014A2D5EB13FCED92E7FD2274FF18
:10031200FCFDFEFF22E480F8A2D574FF13FC7D8071
:03032200E480EF85
:10032500F920E72824F950037907E4F42402FB189F
:10033500DBFDE224FB5014E9600DE4F218E204F25F
:0F034500B40A08E4F2D9F57401F20A22C2D522F3
:10035400ED33EC3392D5FA602AB4FF33EDC2E77B78
:10036400FF60067A037979E4227A03798220D5043E
:100374007A03797D224E614E002B494E46002D4969
:100384004E4600E47A08F208DAFC7B00740722E89F
:10039400C0E0ECC0E0EDC0E0EEC0E0EFC0E0EA7524
:1003A400F010A4CAABF075F04DA42BFBE435F0FCBF
:1003B400EA2410FAEB34C5FBEC34D9FCEDC2E7FFB8
:1003C40075F056A4F42411C5F0F434C58FF0A42AB2
:1003D400E5F03BE43CF220E714120527D0E0FFD01F
:1003E400E0FED0E0FDD0E0FC12045A8014F40412C4
:1003F4000527D0E0FFD0E0FED0E0FDD0E0FC120104
:100404001ED0E0F8E2FAEDD2E7CD33EC332482FBE0
:10041400E4C3CF33CFCE33CECD33CD33DBF37B0741
:1004240075F00A846004F2081B0AE5F0F2088FF004
:10043400740AA4FFACF08EF0740AA42CFEACF05045
:10044400010C8DF0740AA42CFDE435F0F208DBDE17
:0304540074072208
:1004570002031AEC5D046005E859047003020310F7
:100467001202DB580460F6EC4860F2EC7004FDFE03
:10047700FF22C860DB2481C85009C3986002500678
:100487000203179850CAF582E9294B4A7005AB82D7
:1004970002030675F0007C1A7880C3EF9BEE9AED95
:1004A70099400DC3EF9BFFEE9AFEED99FDE842F0F0
:1004B700DC23ACF0D0E0FFD0E0FED0E0FDAB822043
:1004C700E7101BEB60BAEC2CFCEF33FFEE33FEEDCD
:1004D70033FD0202F2E803F830E705C0F075F000DB
:1004E700EF2FFFEE33FEED33FD40B830E7C280AAB1
:1004F7003F8000004120000042C80000447A00000D
:10050700461C400047C35000497424004B1896808E
:100517004CBEBC205A0E1BCA6753C21C749DC5AE85
:10052700FB60065407601C2323120555EB54386003
:100537000912054112055012011EECF8EDF9EEFA09
:10054700EFCB22EB12055080F1543803241C9004A2
:10055700F7FE93FC0EEE93FD0EEE930ECE93FF2265
:030000000214B334
:0C14B300787FE4F6D8FD7581210214FA60
:10056700E709F608DFFA8046E709F208DFFA803E76
:1005770088828C83E709F0A3DFFA8032E309F60863
:10058700DFFA8078E309F208DFFA807088828C83CB
:10059700E309F0A3DFFA806489828A83E0A3F6087F
:1005A700DFFA805889828A83E0A3F208DFFA804C59
:1005B70080D280FA80C680D4806980F28033801030
:1005C70080A680EA809A80A880DA80E280CA803399
:1005D70089828A83ECFAE493A3C8C582C8CCC58311
:1005E700CCF0A3C8C582C8CCC583CCDFE9DEE780E1
:1005F7000D89828A83E493A3F608DFF9ECFAA9F060
:10060700EDFB2289828A83ECFAE0A3C8C582C8CCB5
:10061700C583CCF0A3C8C582C8CCC583CCDFEADECE
:10062700E880DB89828A83E493A3F208DFF980CC30
:1006370088F0EF60010E4E60C388F0ED2402B40429
:100647000050B9F582EB2402B4040050AF232345D0
:0606570082239005B77339
:10065D00BB010689828A83E0225002E722BBFE029B
:09066D00E32289828A83E49322CE
:10067600BB010CE58229F582E5833AF583E0225039
:1006860006E92582F8E622BBFE06E92582F8E22283
:0D069600E58229F582E5833AF583E493229D
:1006A300BB010689828A83F0225002F722BBFE0136
:0206B300F32230
:0E06B500C3E49FFFE49EFEE49DFDE49CFC2256
:1006C300EB9FF5F0EA9E42F0E99D42F0E89C45F08D
:0106D3002204
:1006D400E8600FECC313FCED13FDEE13FEEF13FF04
:0306E400D8F12228
:1006E700E8600FEFC333FFEE33FEED33FDEC33FC71
:0306F700D8F12215
:0C06FA00ECF208EDF208EEF208EFF2223C
:10070600D083D082E493F208740193F208740293C2
:09071600F208740393F2740473F9
:10071F00FAE2FB0808E2F925F0F218E2CA3AF222EF
:09072F00EBF208EAF208E9F222FB
:10073800D083D082F8E4937012740193700DA3A350
:1007480093F8740193F5828883E473740293686064
:06075800EFA3A3A380DF64
:10189300EFB40A07740D12189E740A309811A899B0
:1018A300B8130CC2983098FDA899C298B811F630B5
:0718B30099FDC299F599228D
:1015AF007845EBF208EAF208E9F2784BEBF208EA39
:1015BF00F208E9F27845E2FB0808E2F92401F21893
:1015CF00E2FA3400F212065D70EA7847E224FFF285
:1015DF0018E234FFF27848E2FB0808E2F92401F23E
:1015EF0018E2FA3400F212065DFF7845E2FB0808B4
:1015FF00E2F92401F218E2FA3400F2EF1206A370B6
:0C160F00D4784BE2FB08E2FA08E2F92272
:10075E00E709F60870FA8046E709F20870FA803E5B
:10076E0088828C83E709F0A370FA807EE309F6088D
:10077E0070FA8076E309F20870FA806E88828C83B4
:10078E00E309F0A370FA806289828A83E0A3F608F7
:10079E0070FA805689828A83E0A3F20870FA804A42
:1007AE0080D280FA80C680D4806580F2803180103D
:1007BE0080A680EA809A80A880DA80E280CA8031A2
:1007CE0089828A83ECFAE493A3C8C582C8CCC58318
:1007DE00CCF0A3C8C582C8CCC583CC70E9800D8986
:1007EE00828A83E493A3F60870F9ECFAA9F0EDFB84
:1007FE002289828A83ECFAE0A3C8C582C8CCC5835D
:10080E00CCF0A3C8C582C8CCC583CC70EA80DD8984
:10081E00828A83E493A3F20870F980CE88F0ED24E7
:10082E0002B4040050C4F582EB2402B4040050BAA2
:09083E0023234582239007AE73C9
:1012BB007851EBF208EAF208E9F208E2FB08E2FAED
:1012CB0008E2F912065D70030213627851E2FB0823
:1012DB00E2FA08E2F912065D700302136D08E2F9F7
:1012EB0008E2FA08E208C9F208EAF208E9F27851D2
:1012FB00E2F908E2FA08E2785AC9F208EAF208E9D8
:10130B00F27857E2FB08E2FA08E2F912065DFF6099
:10131B002708E2FB08E2FA08E2F912065D6F701883
:10132B007859E22401F218E23400F2785CE22401ED
:10133B00F218E23400F280C97857E2FB08E2FA08AF
:10134B00E2F912065D7002800E7853E22401F21866
:10135B00E23400F20212D67851E2FB08E2FA08E21C
:09136B00F9227B007A00790022CE
:10084700EF4E6012EF60010EEDBB010B89828A83C8
:10085700F0A3DFFCDEFA2289F05007F709DFFCA9D5
:0C086700F022BBFEFCF309DFFCA9F0222C
:1014BF00021866E493A3F8E493A34003F68001F2C5
:1014CF0008DFF48029E493A3F85407240CC8C3332E
:1014DF00C4540F4420C8834004F456800146F6DFFD
:1014EF00E4800B0102040810204080901A3CE47E37
:1014FF00019360BCA3FF543F30E509541FFEE493F2
:10150F00A360010ECF54C025E060A840B8E493A3B8
:10151F00FAE493A3F8E493A3C8C582C8CAC583CAE3
:10152F00F0A3C8C582C8CAC583CADFE9DEE780BE9B
:011A51000094
:00000001FF
